:100000000C944A020C9467020C9467020C946702E9
:100010000C9467020C9467020C9467020C946702BC
:100020000C9467020C9467020C94E30E0C949F0EE0
:100030000C947F1A0C9467020C9467020C9467026C
:100040000C9467020C9467020C9467020C9467028C
:100050000C9467020C94BA0F0C9467020C9467021C
:100060000C9467020C9467020C9467020C9467026C
:100070000C9467020C9467020C9467020C9467025C
:100080000C9467020C9467020C9467020C9467024C
:100090000C9467020C9467020C9467020C9467023C
:1000A0000C9467020C9467020C94670235002B00D5
:1000B0000151E100E30000001E00140004001D00D7
:1000C0000100E2001F001A0016001B0001002900B9
:1000D0002000080007000600035128002100150039
:1000E0000900190002510100220017000A00050052
:1000F0000000010023002F000000010000000100AB
:1001000023003000000001000000010024001C005A
:100110000B00110000000100250018000D00100068
:10012000E000010026000C000E00360001002C004B
:10013000270012000F00370001002A002D001300D5
:100140003300380001004C002E0031003400E5007F
:10015000280000002900010001000100010000004A
:100160000100010001000100010001000100010087
:100170000100010001000100010001000100010077
:100180000100280801000100010001000100010038
:100190000100010001000100000001000100010058
:1001A000000001000000010001000100000001004A
:1001B0000000010001000100010001000000010039
:1001C00001004A005000010001000100010052003E
:1001D000510001000100010001004D004F0001002D
:1001E0000100010001000100010001000100010007
:1001F00001000100010001000100000001000100F8
:1002000001000100010000000100010001000100E7
:1002100001000100010001000100010001000100D6
:1002200001000100010001000100010001000100C6
:1002300001000100010001000100010001000100B6
:1002400000000100010001000000010000000100A9
:100250000100010000000100000001000100010098
:10026000010001000000010001005F005C00590076
:1002700027000100010060005D005A0063000100DA
:10028000010061005E005B0001000100010001004F
:100290000100010001000100010001000100010056
:1002A0000100000001000100010001000100000048
:1002B0000100010001000100010001000100010036
:1002C0000100010001000100010001000100010026
:1002D0000100010001000100010001000100010016
:1002E0000100010001000100000001000100010007
:1002F00000000100000001000100010000000100F9
:1003000000000100010001000100010000000100E7
:10031000010045002D01010001000100010045021E
:100320003B000100010001000100450A2D0301000E
:1003300001000100010001000100010001000100B5
:100340000100010001000100010000000501098019
:10035000A101850319012AB700150126B7009501EF
:1003600075108100C0050C0901A101850419012A3D
:10037000A002150126A002950175108100C005019B
:100380000906A1018505050719E029E715002501E2
:100390009508750181020507190029EF150025014F
:1003A00095F075018102050819012905950575016A
:1003B0009102950175039101C005010906A101058E
:1003C0000719E029E71500250195087501810295B7
:1003D00001750881010507190029FF150026FF0096
:1003E000950675088100050819012905950575010F
:1003F0009102950175039101C009023B00020100C1
:10040000A0FA090400000103010100092111010003
:10041000012240000705810308000A0904010001C8
:1004200003000000092111010001226D000705826F
:100430000320000A120100020000000897327449EC
:1004400001000102000116034500720067006F0001
:1004500044006F007800200045005A00000030037F
:100460005A005300410020005400650063006800FA
:100470006E006F006C006F006700790020004C0078
:10048000610062007300200049006E0063000000FC
:100490000403090411241FBECFEFDAE0DEBFCDBF95
:1004A00011E0A0E0B1E0E2E3FAE302C005900D92B2
:1004B000A434B107D9F722E0A4E4B1E001C01D9251
:1004C000AD35B207E1F70E94D0180C94EC1C0C94E7
:1004D0000000E8EDF0E080818E7F80831092E200E2
:1004E0001092DA001092E100A0EEB0E08C918160F1
:1004F0008C9380818F77808319BCA7EDB0E08C91BD
:100500008E7F8C9380818F7E80831092230208954A
:100510002091E4003091E50095E6A9012091EC00DE
:10052000822F817020FF06C08091E80080FF06C006
:1005300080E008952091E80022FD1AC080914802D1
:10054000882389F0853089F08091EB0085FD0FC00C
:100550002091E4003091E50042175307F9F29150E1
:10056000E1F684E0089582E0089583E0089581E053
:100570000895EF92FF920F931F93CF937C018B010D
:100580000E948802C82F811117C08091E80085FD64
:100590000BC08091E8008E778093E8000E9488026B
:1005A000882399F3C82F08C0F70181917F018093B8
:1005B000F1000150110949F78C2FCF911F910F9134
:1005C000FF90EF90089580914A0287FF13C08091B9
:1005D000E80082FF06C08091E8008B778093E800F6
:1005E00004C0809148028111F2CF089580914802A1
:1005F0008823D9F38091E80080FFF8CF8091E8004C
:100600008E77ECCF982F9093E900242F762F50E02F
:10061000891731F07091EC002091ED005091F000BD
:1006200021FD07C09F5F973071F78093E90081E05B
:1006300008953091EB003E7F3093EB003091ED0058
:100640003D7F3093ED003091EB0031603093EB0053
:100650007093EC002093ED005093F0002091EE0099
:1006600027FDE0CF80E00895CF92DF92EF92FF92D6
:100670000F931F93CF93DF93C8EDD0E088818F7ED7
:100680008883E7EDF0E080818160808384E082BF31
:1006900081E08093230288818E7F888302EE10E0C0
:1006A000F80110821092DA0081EEC82ED12CF601EA
:1006B000108288818F778883888180688883888189
:1006C0008F7D888319BC10924802109249021092C3
:1006D00047021092460290EEE92EF12CF70180813C
:1006E0008B7F808388818160888342E060E080E046
:1006F0000E940203F60180818E7F8083F801808151
:1007000081608083808188608083F70180818E7F13
:100710008083888180618883DF91CF911F910F91C1
:10072000FF90EF90DF90CF900895FC0180915002F0
:100730009091510286179707A0F06115710529F471
:100740009091E8009E779093E80090E06115710524
:1007500051F4911108C08091E80082FF34C080E01C
:100760000895BC01F2CF809148028823C1F1853001
:10077000C1F18091E80083FD30C08091E80082FDE6
:10078000EACF8091E80080FFE1CF8091F3002091D3
:10079000F200382F6115710519F02830310558F035
:1007A00091E02830310509F090E02091E8002E77A3
:1007B0002093E800CBCF81918093F10061507109C3
:1007C0002F5F3F4FE7CF80914802882341F085306B
:1007D00041F08091E80083FFBECF81E0089582E080
:1007E000089583E008950895809125020895209149
:1007F00012012223C9F02091000227FF15C0E62F25
:10080000E695E695E695EE31D8F4E80FF92FF11D5F
:10081000677021E030E001C0220F6A95EAF7209569
:100820008281282322830895FC0132960896219123
:10083000621303C0DF0111971C92E817F907B9F79B
:100840000895209112012223C1F02091000227FF78
:1008500014C0E62FE695E695E695EE31F8F4E80F3C
:10086000F92FF11D677021E030E001C0220F6A9579
:10087000EAF78281822B82830895FC0132962FEF62
:1008800030E04191641751F02F3F19F4411101C03C
:10089000232F3F5F3630A9F72F3F09F40895820FC9
:1008A000911D27FD9A95FC01628308958091E301D3
:1008B00081111092E30108958091E2019091E1018C
:1008C000892B9091E001892B809344019091E30161
:1008D0009923A1F0892B80934401809112018823F0
:1008E00041F18091000287FF24C08EE1E6E4F1E04F
:1008F00090E0815000F591110E945604E0910202AF
:10090000F09103023097E1F080911201882359F0B1
:100910008091000287FF07C08091440180934501C8
:1009200085E0809344010280F381E02D84E491E02E
:10093000099486E0DBCF21912223D9F29F5FD9CFA2
:100940000895E92FEE0FE90FEE0F8E0F982F977095
:1009500086958695869525E0829FF0011124E855BD
:10096000FE4F50E040E080E0219130E0092E02C0CF
:10097000369527950A94E2F721703327042E01C09B
:10098000220F0A94EAF7822B4F5F5F4F45305105E3
:1009900059F70895E92FEE0FE90FEE0F8E0F982FFC
:1009A000977041E001C0440F9A95EAF786958695C5
:1009B000869595E0899FF0011124E855FE4F30E0BF
:1009C00020E070E05191DF011197CB01022E02C0AF
:1009D000969587950A94E2F78170819585278423FF
:1009E00085278C932F5F3F4F2530310559F70895A8
:1009F0008091A70190917601981301C008958F5FAF
:100A00008770FACF882341F080959091E201892385
:100A10008093E2010C945C040895882339F090914E
:100A2000E201982B9093E2010C945C0408952091CC
:100A30006D0130916E012817390771F090936E01A6
:100A400080936D01E0910202F0910302309721F052
:100A50000084F185E02D0994089520916B01309177
:100A60006C012817390771F090936C0180936B012A
:100A7000E0910202F0910302309721F00680F781A5
:100A8000E02D099408951092E1011092E0010E9476
:100A90005C0490E080E00E942D0590E080E00C94E2
:100AA00017056093E4017093E5018093E60190934C
:100AB000E7010C944305882379F19CEF980F913A54
:100AC00038F4682F84E491E00E94F7030C945C04EE
:100AD00090E2980F983088F4877021E030E0A90107
:100AE00002C0440F551F8A95E2F7CA018095909184
:100AF000E20189238093E201E9CF9BE5980F9330CF
:100B000020F490E080E00C942D05885A873120F481
:100B100090E080E00C9417050895CF93C82F8823A8
:100B200009F467C08CEF8C0F813AC0F580911201F7
:100B3000882311F18091000287FF1EC0EC2FE695FB
:100B4000E695E695F0E0EC5BFE4F828190E04C2F5D
:100B5000477021E030E002C0220F331F4A95E2F7D0
:100B600082239323892B91F06C2F84E491E00E94DF
:100B7000F7030E945C040AC0E6E4F1E08CE491E033
:100B80002191C21789F38E179F07D1F76C2F84E448
:100B900091E00E942104CF910C945C0480E28C0FC0
:100BA000883068F4C77021E030E001C0220FCA9598
:100BB000EAF78091E201822B8093E201ECCFEBE532
:100BC000EC0FE33040F4F0E0ED5EFE4F808190E00A
:100BD000CF910C942D05C85AC73158F4EC2FF0E092
:100BE000EE0FFF1FEA5EFE4F80819181CF910C9442
:100BF0001705CF910895E0910202F091030230971A
:100C000021F00190F081E02D099480E00895909109
:100C1000000292FF06C0282F28712830F9F4877F40
:100C2000846093FF06C0282F28712831F1F4877E55
:100C300084612091010220FF06C0382F38713830BE
:100C4000D9F4877F816021FF06C0282F28712831C1
:100C5000D1F4877E816194FD877E0895282F2471C9
:100C60002430F9F68B7F8860DCCF282F2471243163
:100C700001F78B7E8861DDCF382F3171313019F764
:100C80008E7F8860E0CF282F2171213121F78E7E61
:100C90008861E1CFCF93DF93972F70E026E0929F9A
:100CA000600D711D1124FB0134E5839FE00DF11DE2
:100CB0001124EE0FFF1FE455FF4FC591D491CE01D3
:100CC000C238D105B9F1E8F5C133D10509F499C0AD
:100CD00050F5C932D10509F48DC0CA32D10509F4E5
:100CE00097C0C11542E5D40708F0B6C0C11521E58B
:100CF000D20708F024C1C83ED10508F09DC0C03E0F
:100D0000D10568F5C83AD10508F089C0C53AD105C2
:100D100008F0EDC0C130D10511F1209709F443C0AE
:100D20002497E8F440C0C533D10509F45CC0C93349
:100D3000D105B9F620910002237089F080EE90E091
:100D40000EC0C33ED10591F168F4C03ED105F9F063
:100D5000C23ED10531F62091000222FD20C0DF9174
:100D6000CF910895C63ED10561F1C73ED10581F10D
:100D7000C43ED10509F0B5CF2091010221FFEFCF8C
:100D80008091000284FD0FC087EE90E0E8CF2091B3
:100D9000000220FD01C13091010230FFE0CF83EE5F
:100DA00090E024FFDCCF90E080E0D9CF20910002DA
:100DB00022FDF5C03091010230FDC0CF24FFCFCF1E
:100DC000F2CF2091000223FFCACF24FDECCFDCCF6D
:100DD0002091000223FDE6C03091010231FFEECFE9
:100DE00084EE90E0BCCF2091000225FFB8CF89E2CD
:100DF00090E0B5CF2091000225FFB1CF85E390E0D0
:100E0000AECF2091000226FFAACF8AE290E0A7CFC2
:100E10002091000226FFA3CF81E390E0A0CFCF3B3B
:100E2000D10508F6C85AD0E0CC0FDD1FCA5EDE4FF0
:100E300088819981946493CFC11530E5D30708F078
:100E400062C0C11540E4D40708F059C0DA95C11555
:100E5000DF4108F484CFA7CFC11536E5D30718F5D5
:100E6000C11545E5D40708F080C0C11584E5D80751
:100E700008F076C09C2F96959695AE014370552745
:100E8000C115D34508F460C021E030E002C0220F54
:100E9000331F4A95E2F740E2949FC0011124822B50
:100EA000932B9A685CCFC1153AE5D30778F4C11546
:100EB00049E5D40708F063C0C11588E5D80708F4F0
:100EC00072CF9C2F8827806F906A49CFCE019056B1
:100ED0008115904208F067CF8D2F8F710E94070611
:100EE00090E0982F882788279F718C2B46C0C55A81
:100EF000D0E0CD5EDE4F888190E0906430CFCE01AF
:100F00009F70906A2CCF9E01E4E036952795EA9574
:100F1000E1F723708C2F86958695837030E2839F4E
:100F2000C0011124922BC37021E030E002C0220FD7
:100F3000331FCA95E2F7822B932B9C6810CF9C2F0E
:100F40008827816F906A0BCF21E030E002C0220F2A
:100F5000331F4A95E2F740E2949FC0011124EBCF82
:100F60009C2F8827846F906AFACE8C2F0E940706E8
:100F700090E0982F882788279F719062F0CE8C2F61
:100F80008F700E94070634E0D695C7953A95E1F731
:100F9000CF709C2F9069E3CE89E390E0E0CE82EEA3
:100FA00090E0DDCE86EE90E0DACEBF92CF92DF9277
:100FB000EF92FF920F931F93CF93DF938C01C0901A
:100FC000FC01D090FD01E090FE01F090FF018091C6
:100FD000E4019091E501A091E601B091E701C82AF2
:100FE000D92AEA2AFB2ACFE1D0E0BC2ED701C601DC
:100FF0000C2E04C0B695A795979587950A94D2F7BD
:1010000080FD0EC0219788F7B12C8B2DDF91CF91F9
:101010001F910F91FF90EF90DF90CF90BF900895B8
:10102000B8018C2F0E944A06019761F3EECFCF934F
:10103000DF93EC010E94D507BE01DF91CF910C94A4
:101040004A060E941708292F2F7092959F70925080
:101050009E3078F4E92FF0E0E251F34E0C94731BCC
:10106000803F19F020F4883E20F481E00895843F09
:10107000E1F380E00895883EC0F3813FD1F7F5CFDA
:10108000822F869586958695089527982F9808959E
:1010900026982E98089525982D98089556985E982C
:1010A0000895279A2F9A0895269A2E9A0895259A98
:1010B0002D9A0895CF92DF92EF92FF92CF936B011A
:1010C0007C01C701AA27BB27C0E10097A105B10594
:1010D00019F4D701CB01C0E0492F5A2F6B2F772786
:1010E000411551056105710519F0C85FDB01CA01A1
:1010F000AC01BD01E4E07695679557954795EA9573
:10110000D1F7411551056105710519F0CC5FDB017F
:10111000CA01AC01BD0132E07695679557954795B8
:101120003A95D1F7411551056105710519F0CE5F6A
:10113000DB01CA01B695A79597958795892B8A2BD0
:101140008B2B09F0CF5F0E944E080E944B080E9433
:1011500048080E944508C150C73040F4EC2FF0E029
:10116000E450F34E0C94731B0E945708C701B6015C
:10117000CF91FF90EF90DF90CF9008950E94570895
:101180000E945408F3CF0E9457080E945108EECFE6
:101190000E9457080E945408F8CF0E945A08609392
:1011A000FC017093FD018093FE019093FF010C946C
:1011B00043050F931F9341E050E060E070E004C0EE
:1011C000440F551F661F771F8A95D2F7CB01BA01CE
:1011D00060957095809590950091FC011091FD01AE
:1011E0002091FE013091FF0160237123822393231C
:1011F0001F910F910C94CD089091DF018095892368
:101200008093DF01282F277071F4282F082E000CFF
:10121000330B9217130639F08595859585950E94B5
:10122000D9081092DF0108950F931F9341E050E019
:1012300060E070E004C0440F551F661F771F8A9559
:10124000D2F78091FC019091FD01A091FE01B09137
:10125000FF018A019B01082B192B2A2B3B2BC9016B
:10126000B8011F910F910C94CD08209828982198CF
:10127000299822982A9823982B9852985A985398EC
:101280005B983E98469808958098889A8198899AA4
:1012900084988C9A85988D9A86988E9A87988F9A3A
:1012A0000895CF93DF9300D00F92CDB7DEB7909122
:1012B0004802943019F589837B836A8382E08093A6
:1012C000E9008FEF9091E800815095FD06C095ED03
:1012D0009A95F1F700008111F5CF8091E80085FF24
:1012E0000DC050E040E063E070E0CE0101960E9446
:1012F000B9028091E8008E778093E8000F900F90FC
:101300000F90DF91CF910895BC0184E00C945109B6
:10131000BC0183E00C945109CF93DF93EC018091E1
:1013200012018823B1F18091000287FF32C060E290
:1013300082E08093E9008FEF9091E800815095FD65
:1013400006C095ED9A95F1F700008111F5CF8091D7
:10135000E80085FF1BC08091120170E050E040E082
:10136000811104C050E040E068E070E0CE010E94CE
:10137000B9028091E8008E778093E80080E2FE0158
:10138000A6E2B2E001900D928A95E1F7DF91CF914C
:10139000089568E081E0CDCFEF92FF920F931F9305
:1013A000CF93DF930E944E080E944B080E9448088A
:1013B0000E94450888E8E82EF12C8FEF90E0F701B5
:1013C000918380830AE810E0F80191838083CCE860
:1013D000D0E0998388830E945708FFEF20E782E0DE
:1013E000F15020408040E1F700C000000E94540806
:1013F0009FEFE0E7F2E09150E040F040E1F700C0FD
:1014000000000E9451082FEF80E792E021508040B9
:101410009040E1F700C000000E944B08EFEFF0E7BA
:1014200022E0E150F0402040E1F700C000000E94BF
:1014300048088FEF90E7E2E081509040E040E1F70C
:1014400000C000000E9445088091EA018770FFEF0C
:101450008F9FC0011124959587959595879599271C
:10146000F70191838083F801918380839983888336
:101470000E944E080E944B080E944808DF91CF91BD
:101480001F910F91FF90EF900C944508CF9384E04B
:1014900090E00E94791BC82F81E290E00E94791BA6
:1014A000982F8C2FCF9108956FEE7EEF90E080E023
:1014B0000E94AB1B60E082E090E00E948D1B60E028
:1014C00083E090E00E948D1B1092E4011092E501F0
:1014D0001092E6011092E70160E084E090E00E9443
:1014E0008D1B60E081E290E00E948D1B60E085E052
:1014F00090E00E948D1B60E086E090E00E948D1BD2
:101500006FEF87E090E00E948D1B40E050E0BA0151
:1015100088E090E00E949F1B60E08DE090E00E94D8
:101520008D1B40E050E0BA0188E190E00E949F1BD3
:1015300060E087E190E00E948D1B40E050E0BA013E
:101540008CE190E00E949F1B60E080E290E00E94AE
:101550008D1B40E050E0BA0188E190E00E949F1BA3
:101560001092EA011092EB011092EC011092ED0141
:1015700084E080618093EA014091EA015091EB019F
:101580006091EC017091ED018FE090E00E949F1B53
:1015900040E050E0BA0183E190E00C949F1B109270
:1015A000E20180911201E6E4F1E0882359F0809194
:1015B000000287FF07C08EE1DF011D928A95E9F7DF
:1015C0000C94430586E0F8CF1F93CF93DF93CDB7FC
:1015D000DEB7AA970FB6F894DEBF0FBECDBF8AE480
:1015E00092E02091F100FC012193CF01F2E08235DD
:1015F0009F07B9F780914B02833009F46FC0B8F4AC
:10160000813009F446C0823009F4B0C08091E8000E
:1016100083FF7BC280914A0290914B029A3008F07E
:1016200074C2E92FF0E0ED5FF24E0C94731B8A3028
:1016300009F48BC08B3009F46EC0893039F7809182
:101640004A02813219F780914E0290914F0202971F
:10165000E8F68091E800877F8093E8008091E800B9
:1016600082FF37C09091F3008091F200029729F435
:101670008091F1008B7F813021F48091F100809383
:1016800025028091E8008B778093E8000E94E302B6
:10169000BDCF80914A02813A09F0B8CF8091E8002D
:1016A000877F8093E80080914E0290914F02892BB2
:1016B00061F460E286E292E070E00E94950380911E
:1016C000E8008B778093E800A1CF60E090E080E0B5
:1016D000F3CF809148028111C1CF98CF80914A0207
:1016E000813A09F093CF80914E0290914F02892B5D
:1016F00009F08CCF8091E800877F8093E80080918B
:10170000E80080FFFCCF809112018093F10080916E
:10171000E8008E77B9CF80914A02813209F076CF06
:1017200080914E0290914F02892B09F06FCF8091EA
:10173000E800877F8093E8000E94E30280914C02DA
:10174000809312010E94CF0A61CF80914A028132B8
:1017500009F05CCF8091E800877F8093E8000E94C9
:10176000E30280914D028093240250CF80914A027F
:10177000813A09F04BCF8091E800877F8093E800A1
:101780008091E80080FFFCCF80912402BECF80389A
:1017900099F0823809F0B9C180914E028F7087307C
:1017A00008F0B3C18093E9008091EB0085FB8827A6
:1017B00080F91092E90006C080914602909147029C
:1017C000911182609091E800977F9093E800809358
:1017D000F1001092F1008091E8008E7792C1882389
:1017E00009F480C1823009F090C180914C028111CE
:1017F00083C180914E028F702FEF280F263008F0A2
:1018000084C18093E9002091EB0020FF75C19330E3
:1018100031F48091EB0080628093EB006DC1909178
:10182000EB0090619093EB0021E030E001C0220FCB
:101830008A95EAF72093EA001092EA008091EB0083
:101840008860EACF811161C110914C021F778091AD
:10185000E3008078812B8093E3008091E800877F0C
:101860008093E8000E94E3028091E80080FFFCCFB3
:101870008091E30080688093E30082E0111183E0AF
:101880008093480242C18058823008F03EC1809166
:101890004C0290914D028C3D23E09207A1F583E02C
:1018A0008A838AE289834FB7F894DE01139620E099
:1018B0003EE051E2E32FF0E050935700E49120FF27
:1018C00003C0E295EF703F5FEF708E2F90E0EA303B
:1018D000C0F0C7968D939D932F5F243159F74FBF6A
:1018E0008091E800877F8093E8006AE270E0CE0193
:1018F00001960E9495038091E8008B778093E80021
:1019000004C1C096E7CF40914E0250914F02292F5B
:1019100033272330310509F444C078F521303105EF
:1019200009F46FC08BE390E0E9EFF3E0223031057A
:1019300009F0EBC02091E800277F2093E800209178
:101940005002309151028217930708F49C0140E045
:101950002115310509F064C0411162C08091E80091
:1019600082FDC9CF80914802882329F2853019F27F
:101970008091E80083FFF2CFBECF21323105A9F17B
:101980002232310509F0C1C04115510509F443C0A7
:101990004130510509F0B9C08DE690E0ECE4F3E088
:1019A000C9CF992781309105C1F0009759F002976E
:1019B00009F0ABC0E6E4F4E0E4918E2F90E0E6E4B9
:1019C000F4E007C0E0E9F4E0E4918E2F90E0E0E974
:1019D000F4E0009709F499C0ADCFEEE5F4E0E491AE
:1019E0008E2F90E0EEE5F4E0F4CF4115510571F053
:1019F0004130510509F089C089E090E0E4E2F4E06B
:101A000099CF82E190E0E4E3F4E094CF89E090E0C4
:101A1000EBE0F4E08FCF80E490E0E9EBF3E08ACFF5
:101A200080914802882309F466CF853009F463CF9A
:101A30008091E80083FD5FCF8091E80082FD8ECF2A
:101A40008091E80080FF84CF9091F3008091F200B4
:101A50002115310519F08830910550F041E00897C3
:101A600009F040E08091E8008E778093E80070CF25
:101A700044914093F1003196215031090196E8CF0D
:101A8000803809F042C08091E800877F8093E800A9
:101A9000809149028093F1009ECE811136C0109151
:101AA0004C02123090F58091E800877F8093E80027
:101AB000109349020E94E302112311F084E005C053
:101AC0008091E30087FDFACF81E08093480242E0F5
:101AD00061EC81E00E94020342E261EC82E00E943C
:101AE000020313C080914C02813079F481E093307D
:101AF00009F080E0809347021092E9008091E800AD
:101B0000877F8093E8000E94E3028091E80083FFD2
:101B10000AC08091E800877F8093E8008091EB0005
:101B200080628093EB00AA960FB6F894DEBF0FBEDA
:101B3000CDBFDF91CF911F910895CF93C82F8730EC
:101B400070F58091060190910701892B89F564E673
:101B500070E080E40E94AC1A909307018093060124
:101B6000892BD1F464E670E082E10E94081B909317
:101B7000070180930601892B79F481E090E001C090
:101B8000880FCA95EAF764E670E080950E94081B0A
:101B90009093070180930601CF910C945B1B8A30D0
:101BA000B9F040F4883071F0893079F0209A2898A3
:101BB000CF9108958C3091F070F08D30B9F73E9A46
:101BC0004698F6CF219A2998F3CF229A2A98F0CFF7
:101BD000239A2B98EDCF529A5A98EACF539A5B9852
:101BE000E7CF80E290E09093070180930601809117
:101BF000640181110EC00E94A61A81E080936401E5
:101C00002FEF83ED90E3215080409040E1F700C03A
:101C1000000064E670E080E40E94AC1A9093070133
:101C200080930601892B09F04EC064E670E080E0E5
:101C30000E94081B9093070180930601892B09F0ED
:101C400042C064E670E080E00E94081B90930701A8
:101C500080930601892BB9F564E670E08FE30E945A
:101C6000081B9093070180930601892B61F50E9460
:101C70005B1B64E670E080E40E94AC1A909307015D
:101C800080930601892BF9F464E670E08CE00E94F1
:101C9000081B9093070180930601892BA1F464E649
:101CA00070E080E00E94081B90930701809306017A
:101CB000892B49F464E670E08FE30E94081B90933F
:101CC0000701809306010E945B1B80910601089525
:101CD000CF93873050F58091060190910701C0E0C5
:101CE000892B71F464E670E081E40E94AC1A909351
:101CF000070180930601892B31F0C0E00E945B1B35
:101D00008C2FCF91089584E690E00E94371B97FFB7
:101D100005C09093070180930601EFCFC82FC095AF
:101D20001092070110920601E9CFCFB18FB18695CD
:101D300086958C73C3708C2BC82FC095E1CF1F92F2
:101D40000F920FB60F9211242F933F934F935F93EF
:101D50006F937F938F939F93AF93BF93CF93DF93B3
:101D6000EF93FF93D091E900DF708091EC00C82FD2
:101D7000C17080FDC0E81092E9008091F000877F7B
:101D80008093F00078940E94E40A1092E900809118
:101D9000F00088608093F000CD2BCF70C093E900F5
:101DA000FF91EF91DF91CF91BF91AF919F918F9173
:101DB0007F916F915F914F913F912F910F900FBE47
:101DC0000F901F9018951F920F920FB60F9211242B
:101DD0002F933F934F935F936F937F938F939F9333
:101DE000AF93BF93EF93FF938091E10082FF09C00F
:101DF0008091E20082FF05C08091E1008B7F80939B
:101E0000E1008091DA0080FF24C08091D80080FF3B
:101E100020C08091DA008E7F8093DA008091D90013
:101E200080FF9BC080E189BD82E189BD09B400FECD
:101E3000FDCF81E08093480280912302811109C087
:101E40000E9469020E9434038091E20084608093C2
:101E5000E2008091E10080FF17C08091E20080FFE6
:101E600013C08091E2008E7F8093E2008091E200B7
:101E700080618093E2008091D80080628093D800D6
:101E800019BC85E0809348028091E10084FF29C05D
:101E90008091E20084FF25C080E189BD82E189BD97
:101EA00089B5982F917080FFFBCF8091D8008F7DEE
:101EB0008093D8008091E1008F7E8093E100809133
:101EC000E2008F7E8093E2008091E2008160809347
:101ED000E20080914902882309F445C084E08093A0
:101EE00048028091E10083FF27C08091E20083FFD8
:101EF00023C08091E100877F8093E10082E080939E
:101F00004802109249028091E1008E7F8093E100A7
:101F10008091E2008E7F8093E2008091E2008061F8
:101F20008093E20042E060E080E00E940203809142
:101F3000F00088608093F000FF91EF91BF91AF9126
:101F40009F918F917F916F915F914F913F912F91D1
:101F50000F900FBE0F901F90189519BC1092480259
:101F60001092230276CF8091E30087FD93E0909357
:101F70004802B7CF78941F921FB61F9211248F93F7
:101F80009F93AF93BF938091520290915302A0917F
:101F90005402B09155020196A11DB11D80935202C9
:101FA00090935302A0935402B0935502BF91AF9106
:101FB0009F918F911F901FBE1F9018952FB7F89477
:101FC0008091520290915302A0915402B091550217
:101FD0002FBF08950F931F93CF93DF93C62FD42F56
:101FE000022FFC0182818823A1F0609358020E9495
:101FF000DE0F9093570280935602C77081E001C0B4
:10200000880FCA95EAF7DF91CF911F910F910C9439
:102010000D0580915802681343C0209156023091FB
:1020200057024FB7F8948091520290915302A091B9
:102030005402B09155024FBF821B930B883C91050F
:1020400078F510E21D0F6D17B9F080E2860F883029
:1020500040F4C77081E001C0880FCA95EAF70E947A
:102060000205183048F481E09D2F977001C0880F59
:102070009A95EAF70E940D05802F0E948D05802F0A
:102080000E945B05183098F4D77081E001C0880F7A
:10209000DA95EAF7DF91CF911F910F910C94020529
:1020A000C77081E001C0880FCA95EAF7F3CFDF91CE
:1020B000CF911F910F9108954F925F926F927F92EF
:1020C0008F929F92AF92BF92CF92DF92EF92FF9248
:1020D0000F931F93CF93DF9300D000D00F92CDB713
:1020E000DEB77C01FC0183819481892B39F010815A
:1020F000D180812F8D218F3F09F09AC40F900F90CE
:102100000F900F900F90DF91CF911F910F91FF9043
:10211000EF90DF90CF90BF90AF909F908F907F9087
:102120006F905F904F9008950E94D507082F682FF9
:1021300089819A810E94CA04E12FF0E026E0D29EB4
:10214000E00DF11D112434E5039FE00DF11D112474
:10215000EE0FFF1FE455FF4F059114910A328DE5F4
:10216000180709F088C0F70182818823C9F180919E
:10217000EA0191E0980F9770887F953008F4892BD9
:102180008093EA018091EA018770FFEF8F9FC00181
:102190001124959587959595879599279093890012
:1021A0008093880090938B0080938A0090938D0099
:1021B00080938C004091EA015091EB016091EC0119
:1021C0007091ED018FE090E00E949F1B6091FC01F7
:1021D0007091FD018091FE019091FF010E945A08CB
:1021E000F7018281882309F434C410925802023026
:1021F000FCE51F0708F477C106312CE5120738F01B
:1022000098012B5F3C452730310508F06CC10E94D6
:10221000460A90930102809300020F303CE51307B9
:1022200009F442C108F0BCC008309CE5190709F464
:1022300025C108F091C00430FCE51F0709F412C164
:1022400008F077C002303CE5130709F403C10330FE
:102250001C4509F403C1609100021091010284E061
:1022600090E00E948D1B612F81E290E00E948D1B07
:102270000E94CF0A29C0043F2CE5120709F44AC086
:1022800098F4093D8CE5180709F440C00A3D9CE527
:10229000190709F44BC0083DECE51E0709F0A0CF73
:1022A00026E241EE61EE0DC0063FFCE51F07D1F1CD
:1022B000A8F127E245EE66EE073F3CE5130709F07B
:1022C0008FCFC7010E94EA0F8091DF01877009F468
:1022D00015CFF7018281882309F410CF82E00F9097
:1022E0000F900F900F900F90DF91CF911F910F9152
:1022F000FF90EF90DF90CF90BF90AF909F908F9026
:102300007F906F905F904F900C94FC0827E245EE11
:1023100065EED7CF26E241EE60EED3CF27E245EE61
:1023200064EECFCF26E241EE62EECBCF28E241E071
:10233000EFCF80910002806106309CE5190709F417
:1023400047C080910002886007301C4508F440C0F7
:102350008091000280623CC00B30FCE51F0709F44D
:102360009BC068F409303CE5130709F48BC00A30C0
:102370001C4509F070CF809100028C6029C08091CB
:1023800000028B7F0D309CE5190711F1809100024E
:102390008D7F0E301C45E0F080910002877F18C0D1
:1023A0000B3FFCE51F0709F461C060F502313CE515
:1023B000130709F481C078F400319CE5190709F48A
:1023C00077C0809100028F7B01311C4509F043CF1B
:1023D0008093000240CF0431FCE51F0709F47AC066
:1023E00008F470C005311C4509F035CF809100021A
:1023F00082FB992790F921E0922790FB82F990FBCC
:1024000083F9E6CF0E3F8CE5180709F449C070F454
:102410000C3FECE51E0771F1809101028E7F0D3FAC
:102420001C4509F018CF8093010215CF01152DE549
:10243000120709F44BC060F101301D4509F00BCFC4
:1024400080910102982F909591708E7F892B90FB3F
:1024500081F9E9CF809100028160BACF80910002BA
:102460008260B6CF809100028460B2CF8091010279
:102470008160D9CF809101028260D5CF8091000226
:102480008064A6CF0E94CF0A809100028068A0CF0E
:10249000809101028360C7CF809100028E7F98CF28
:1024A000809101028D7FBFCF809100028F7E90CFFF
:1024B000809100028F7D8CCF0E94CF0A8091000214
:1024C0008F7786CF80910002837F82CF8091010237
:1024D0008C7FA9CF0E94CF0A90910002892F97FB91
:1024E00087F9805875CF06319CE5190709F0BEC2FF
:1024F0008091E2018A7A91E009F490E090936F0173
:1025000069E2811165E384E491E00E9421040E9464
:102510005C04DACE0E94CF0AEFEFF4E32CE0E15046
:10252000F0402040E1F700C00000F89481E0809383
:10253000E00080E28093D8001092C9008FE19EE411
:102540000197F1F700C000001DBA109268001CBC92
:1025500010BE1FBA10927A0010926E0010926F0097
:1025600010927100109272001092C9001092BC007B
:1025700014B817B81AB81DB810BA1092BC0015B824
:1025800018B81BB81EB811BA0C94003F9DCE0E941B
:10259000540A9ACEC8010E94A104D82E7EC2212FCF
:1025A0002F70A22E107F19F0A29420EFA222DD201E
:1025B000C9F0AA2069F080E2800F883010F0811005
:1025C0000BC08091E201A82AA092E2010E945C0463
:1025D000802F0E948D0518C08091E101A82AA09249
:1025E000E101F4CF802F0E945B05AA2069F0A0943E
:1025F000005E083010F0811046C08091E201A822F0
:10260000A092E2010E945C042B2D2850330B243051
:10261000310510F40E94FB05CC20A9F08091DF0168
:1026200080FD11C0F70112828595859585950E94E0
:102630001409C7010E945C108091DF018595859582
:1026400085950E94D90885E0F701DE011196019079
:102650000D928A95E1F789819A810E94A1049A815D
:10266000E981F0E026E0929FE00DF11D112434E5B0
:10267000839FE00DF11D1124EE0FFF1FE455FF4F66
:10268000859194913BCD8091E101A822A092E10136
:10269000B9CF312F3F70932E107F103219F09294E2
:1026A00090EF9922882041F081E0881631F1DD20F9
:1026B00079F1AA2041F18CCFDD2091F09091E301D6
:1026C000892D892BA11003C00E940D059DCFE1E04B
:1026D000AE12FACF981709F497CF8093E30194CF05
:1026E000A11006C00E945604892D0E9402058CCFBD
:1026F000F1E0AF1609F488CFF5CFDD2031F021E00D
:102700002A1508F481CF892DDFCFA1107DCFECCF22
:10271000AA2051F339E3831284C18FEF97EEE3E0EF
:1027200081509040E040E1F700C000007AC1812F65
:1027300086958695837061F0813009F065CFC80178
:102740009370D11002C090E080E00E9417055CCF2A
:10275000C8019370D11002C090E080E00E942D0566
:1027600053CF812F837009F066C0D1104DCF802FD9
:10277000829586958770880F880F602F6F70462E20
:10278000512C712C612C082E04C0440C551C661C65
:10279000771C0A94D2F740E050E0BA0104FF0FC062
:1027A0004FE050E060E070E004C0440F551F661F2A
:1027B000771F8A95D2F74095509560957095812F37
:1027C000869586958370823019F1D8F40091E401E2
:1027D0001091E5012091E6013091E701813069F027
:1027E0004429552966297729CB01BA016023712331
:1027F000822393230E94510507CF402A512A622A3F
:10280000732ACB01BA016429752986299729F2CF49
:1028100044295529662977290091E4011091E501A1
:102820002091E6013091E701CB01BA0160277127C1
:1028300082279327DFCF8695DD2011F0812F8170CD
:10284000882309F4E1CE802F829586958770880FC2
:10285000880F602F6F70462E512C712C612C082E22
:1028600004C0440C551C661C771C0A94D2F740E047
:1028700050E0BA0104FF0FC04FE050E060E070E0AC
:1028800004C0440F551F661F771F8A95D2F74095E5
:10289000509560957095812F8695869583708230CE
:1028A00019F1D8F40091FC011091FD012091FE0175
:1028B0003091FF01813069F0442955296629772933
:1028C000CB01BA0160237123822393230E94CD0898
:1028D0009BCE402A512A622A732ACB01BA0164296D
:1028E000752986299729F2CF442955296629772900
:1028F0000091FC011091FD012091FE013091FF013A
:10290000CB01BA016027712782279327DFCF1F7081
:10291000DD2029F0812F0E941409802FD5CE802F31
:102920000E940205812F0E94D9086ECE802FF2EFFF
:102930008F1609F44EC0F81578F020EF821619F1C1
:1029400031EF831609F43DC0DD2009F465C0A11004
:102950003FCE812F8F713AC093EF891609F43EC0A4
:10296000E4EF8E12F1CFDD2009F44BC01F71812FEF
:102970000E94140928E0129FC001112483608093F3
:10298000DF01812F23C0DD20B9F0A1103DCE1F71E2
:1029900061E070E080E090E004C0660F771F881F60
:1029A000991F1A95D2F70091FC011091FD01209119
:1029B000FE013091FF01A6CFF1E0FA1508F424CE14
:1029C000E6CF812F8F71DD2009F4ADCF0E9414096D
:1029D0001BCE812F8F71DD20C9F3A5CF60E070E0A1
:1029E000CB01DD2009F472CF1F7161E070E080E05F
:1029F00090E004C0660F771F881F991F1A95D2F7C1
:102A000065CF81E00E94FC0831E03A1508F0FCCD6A
:102A100082E00E94FC08F8CDAA2039F0893309F43D
:102A20007CCE802F0E945B05EFCD812F8F717BCFF5
:102A300085E0DE01119601900D928A95E1F7F7018C
:102A4000228189819A8121116FCB0E94A104082FD4
:102A500073CB06311C4599F480916F0169E28111B5
:102A600065E384E491E00E94F70351CD01152CE564
:102A7000120709F44FCD0F3D1C4509F488CDF7012D
:102A800000811181882309F485CDC8010E94D507F2
:102A9000D82E682FC8010E94CA04B8018D2D0E944B
:102AA0004A068C01882EF701A580A2944FE0A4224B
:102AB000D280D1101092E1018091DF01877099F0EE
:102AC000DD2089F0812F807F803421F080E2800F2B
:102AD000883048F082E00E94FC088091DF01877016
:102AE000CC24C3948111C12CB12EB2943FE0B32207
:102AF000FBE0FB1508F488CDEB2DF0E0E35FF24E30
:102B00000C94731B1F93CF93DF9380917501807F8B
:102B1000A9F480917201882389F08091A701D09156
:102B200076016091700170917101A0917301B09173
:102B30007401C62FC72316E0D81304C0DF91CF91CC
:102B40001F91089590E0109711F0CF3F19F401966E
:102B50008770F2CF189F9001199F300D1124F90151
:102B6000E958FE4F41814713F2CF40814613EFCF22
:102B700042814111ECCF438154814A1B5B0B483C9D
:102B8000510528F7809175018F70806180937501E0
:102B9000F901E458FE4F80818F708061808380E767
:102BA00091E00E945C10DF91CF911F910C94F8048A
:102BB000AF92BF92CF92DF92EF92FF920F931F934B
:102BC000CF93DF93CDB7DEB761970FB6F894DEBF32
:102BD0000FBECDBF8C0185E0F801DE011D9601908E
:102BE0000D928A95E1F7F80180819181E28020E7DA
:102BF000A22E21E0B22E60917301709174016115D3
:102C0000710509F43EC13091700140917101232F8B
:102C100024232F3F09F435C1C380D480F090720182
:102C2000F601E61BF70BFF2009F4FBC020917501AC
:102C3000522F507FE83CF10508F0BBC0511178C01D
:102C4000FE2C491321C038131FC0E1101DC02F7086
:102C5000206120937501C5010E945C10809175016F
:102C6000F80185838F2D61960FB6F894DEBF0FBEF5
:102C7000CDBFDF91CF911F910F91FF90EF90DF902B
:102C8000CF90BF90AF900895CD2829F0282F292309
:102C90002F3F09F014C120E0F22FF170DF2E20FF4A
:102CA0003DC02091A7014091760156E0241315C044
:102CB0008D879E878D859E850E941708292F2295D6
:102CC0002F702230F8F0243020F59F70F9F0F801D1
:102CD0009581907FD9F4D12C1FC030E0529FF00134
:102CE000539FF00D1124E958FE4F6181961306C0E1
:102CF0006081861303C06281E61210C02F5F3F4FD0
:102D00002770D4CF9F7011F0882329F3805E88301C
:102D100010F3C8010E945C10FD2CA4CFEE2009F432
:102D2000A1CF80917501816080937501F12C9ACFBC
:102D3000491312C0381310C0E1100EC0F8012583EA
:102D4000C8010E945C1086E0F801A0E7B1E00190A4
:102D50000D928A95E1F786CF8D879E878D859E851A
:102D60000E942108882309F1EE20F9F08091750175
:102D7000803270F0209170013091710138872F837B
:102D80001986DB86CA868C87CE0107960E945C1066
:102D900086E0F801A0E7B1E001900D928A95E1F795
:102DA0000E948215FF24F3945DCFC8010E945C103D
:102DB000F9CF51110AC080E791E00E945C1086E0D3
:102DC000F50111928A95E9F7B1CF49130FC0381375
:102DD0000DC0E1100BC0F8012583C8010E945C10F2
:102DE00086E0F50111928A95E9F73CCF8D879E87A1
:102DF0008D859E850E9421088823B9F2EE20A9F2D4
:102E000080917501803220F2209170013091710122
:102E10003A8329831B82DD82CC828E83CE01019688
:102E2000B5CFE83CF105E0F6FE2CEE2009F4BDCF6D
:102E3000491316C0381314C08091750180FD83CFEB
:102E4000982F907F09F47FCFF8018583903F09F494
:102E500077CF982F907F905F8F70892B858370CF6D
:102E60008D879E878D859E850E942108811190CF38
:102E700080917501816080937501C8010E945C108A
:102E8000F1CEEE2009F491CF8D879E878D859E85AA
:102E90000E942108F82E882309F487CF86E0F801E4
:102EA000A0E7B1E001900D928A95E1F78091700161
:102EB000909171010E9417080E948215D3CE21E0E3
:102EC0002E25EACE1F93CF93DF93CDB7DEB767975A
:102ED0000FB6F894DEBF0FBECDBF4B8B5C8B6D8BF6
:102EE0007E8B8F8B1A8A198A85E0FE017396DE012C
:102EF0001D9601900D928A95E1F786E0FE013D96C0
:102F0000DE01179601900D928A95E1F7CE010796A2
:102F10000E94D815811112C086E0FE013796DE01AD
:102F2000119601900D928A95E1F78A859B85892BF0
:102F300029F08F81988589238F3FB1F516E0809124
:102F4000A7019091760189131DC067960FB6F8947A
:102F5000DEBF0FBECDBFDF91CF911F91089596E0E8
:102F6000929FD001939FB00D1124A958BE4FFE012E
:102F7000319601900D929A95E1F7809376010E9427
:102F8000F804DCCF819FC001112489589E4F0E9414
:102F9000D8158823D1F28091A70190E0019687701F
:102FA00099278093A701CBCF2091760130E0C9010A
:102FB0000196877099274091A7014817190679F65D
:102FC0000E94CF0A109276011092A70186E0E0E7F6
:102FD000F1E0DF011D928A95E9F7B0CF8F929F92C1
:102FE000BF92CF92DF92EF92FF920F931F93CF93F6
:102FF000DF938091060190910701892B91F08091D8
:1030000065018F5F8093650181110BC00E94F10DF6
:1030100090E09093070180930601892B11F40E94A0
:10302000CC092EEE822E21E0922E740110E000E0F9
:1030300097E0C92EC00E802F0E949D0D8C2D0E94FE
:103040009D0D802F0E94680EE70199917E01D12C81
:10305000891729F0FE0131978083DD24D3948C2DCC
:103060000E94680EF7019681891709F47AC0868359
:1030700081E08D29182B0E9435090F5F0730C1F6BA
:103080000E94DE0F60916701709168019093680162
:10309000809367012091660130E0261B370B820F79
:1030A000931F6BEF70E00E945F1BE82E392F082FF3
:1030B00080936601F0906A01FF2009F45EC01092CF
:1030C0006A01E091E801F091E901AF01425F5F4FD1
:1030D00020E08BEFB82E6BEF70E0A191AB3F99F041
:1030E000CA2ED12C8E2D932F0A17E8F18C199D0929
:1030F000092E000CAA0BBB0B4E97A105B105C8F118
:10310000DF011197BC924E175F0739F720936A01D0
:10311000111102C0211133C010926901A091E80180
:10312000B091E90190916A01E5E0F2E080E031912F
:10313000E40129914E01321751F03C913B3FD9F403
:103140000C93AF0141505109EA01288391E0119697
:10315000D2E0E331FD0759F790936A01809369014A
:1031600012C080E086CFDB01AC19BD098A0F9B1F1E
:10317000BFCF2F2DC8CF81E0EACF1111CDCF8091E5
:1031800069018111C9CF812FDF91CF911F910F91DB
:10319000FF90EF90DF90CF90BF909F908F90089519
:1031A000CDB7DEB72A970FB6F894DEBF0FBECDBFFE
:1031B00084B7877F84BF0FB6F894A895809160008C
:1031C000886180936000109260000FBE80E890E0FC
:1031D0000FB6F89480936100909361000FBE85B79D
:1031E000806885BF85B7806885BF0E9469020E949C
:1031F00034038091E20084608093E20078948091AF
:1032000048028823A1F01091E9001F709091EC0012
:10321000892F817090FD80E8182B1092E900809131
:10322000E80083FD0E94E40A1F701093E90082E029
:1032300084BD93E095BD9AEF97BD80936E000E9488
:10324000F10D90E090930701809306010E943509EB
:103250000E944409EEEEF1E0A5E0B2E011921D9269
:1032600021E0EC3FF207D1F78EE090E00E94C11B15
:103270008093E8019093E901FC010E962BEF2193D6
:103280008E179F07E1F790E080E00E94871B8F3E3A
:103290009E4F11F00E94540A89EA8093800089E0D1
:1032A0008093810024982C983F988AB18F7C8AB9AA
:1032B0006E98479A8BB180638BB9769A8FE090E0D5
:1032C0000E94811B6093EA017093EB018093EC01F3
:1032D0009093ED0167708FEF689FB0011124759591
:1032E0006795759567957727709389006093880037
:1032F00070938B0060938A0070938D0060938C00B4
:103300000E94CC0990E080E00E94871B8F3E9E4F78
:1033100011F00E94540A82E090E00E94791B809391
:1033200014020E94460A909301028093000283E0F7
:1033300090E00E94791B682F70E090E080E00E948E
:1033400051056091FC017091FD018091FE01909109
:10335000FF010E945A0888E091E090930302809355
:10336000020288E1C82ED12C90E4992E23E1A22EEE
:1033700022E0B22E85E092E03EE0E32EE80E80915E
:10338000480200E112E1853009F47DC00E94EE1789
:10339000E5E1F2E0A5E0B2E010E000E0302F8D9131
:1033A0002191281709F47EC090E0FF24F394282788
:1033B000422F4F2109F471C099833A838F2191E004
:1033C00009F490E09B830E94DE0F8160782F9D833B
:1033D0008C8349815A816B818D810E946217F8012B
:1033E000EB5EFD4F8081F826F0820E94FB059091F4
:1033F0001302891721F20E94FB0580931302BFCFAD
:1034000080914802843009F1109204020FB6F894BA
:10341000A895C09260000FBE9092600083B7817F34
:10342000846083BF83B7816083BF7894889583B7B6
:103430008E7F83BF0FB6F894A89580916000886155
:1034400080936000109260000FBE80914702882335
:10345000D1F00E94F10D90E0909307018093060156
:103460000E9435090E944409E5E0F2E01192AE168F
:10347000BF06E1F70E94EE17E5E0F2E081918111CD
:1034800028C0EE12FBCF80914802853009F4B8CFF6
:103490000E94CF0A0E94FB0579CF9F5FFF0C9630F8
:1034A00009F086CF0F5F1F4F0E30110509F076CF60
:1034B0008FEF8E838F8318860E94DE0F8160782FB6
:1034C0009A8789874E815F8168858A850E94621705
:1034D0008CCF09BD19BD09B400FEFDCF8091D80085
:1034E0008F7D8093D8008091E00082608093E0001F
:1034F0008091E00081FDFCCF0E94CF0AC4CF1F92D3
:103500001FB61F9211248F939F93AF93BF93809107
:103510000402811113C08091520290915302A09134
:103520005402B09155024196A11DB11D80935202E3
:1035300090935302A0935402B0935502BF91AF9160
:103540009F918F911F901FBE1F9018951092B900E8
:103550008CE08093B8000895EF92FF920F931F9331
:10356000CF93DF93182FEB011092BC0084EA809375
:10357000BC000E94DE0F7C018091BC0087FF27C049
:103580008091B900887F883029F08091B900887FC8
:103590008031D9F51093BB0084E88093BC000E9471
:1035A000DE0F8C018091BC0087FF24C02091B90000
:1035B000287F90E080E02831B1F081E090E0203475
:1035C00011F490E080E09195819591090CC0CF3F76
:1035D000DC0791F20E94DE0F8E199F098C179D0760
:1035E00058F28EEF9FEFDF91CF911F910F91FF90D7
:1035F000EF900895CF3FDC07A9F20E94DE0F801BF9
:10360000910B8C179D0770F2ECCF8FEF9FEFEBCFF4
:103610000F931F93CF93DF93EB018093BB0084E85C
:103620008093BC000E94DE0F8C018091BC0087FF5C
:1036300011C02091B900287F81E090E0283211F478
:1036400090E080E0919581959109DF91CF911F9154
:103650000F910895CF3FDC0741F30E94DE0F801BDE
:10366000910B8C179D0708F38EEF9FEFEECF0F9312
:103670001F93CF93DF93EC0184E88093BC000E94FA
:10368000DE0F8C018091BC0087FF08C08091BB00D9
:1036900090E0DF91CF911F910F910895CF3FDC070C
:1036A00089F30E94DE0F801B910B8C179D0750F34E
:1036B0008EEF9FEFEECF84E98093BC000895AA1BA4
:1036C000BB1B51E107C0AA1FBB1FA617B70710F00D
:1036D000A61BB70B881F991F5A95A9F7809590953F
:1036E000BC01CD010895EE0FFF1F0590F491E02D70
:1036F0000994F999FECF92BD81BDF89A992780B5BA
:103700000895A6E1B0E044E050E00C94B31BA8E1BA
:10371000B0E042E050E00C94B31B262FF999FECFA5
:1037200092BD81BDF89A019700B4021639F01FBA14
:1037300020BD0FB6F894FA9AF99A0FBE0895039631
:10374000272F0E948E1B0E948D1B252F0E948E1BEF
:10375000242F0C948E1B0196272F0E948E1B0C94F5
:103760008D1BDC01CB01FC01F999FECF06C0F2BD37
:10377000E1BDF89A319600B40D9241505040B8F72F
:1037800008950F931F93CF93DF938230910510F428
:1037900082E090E0E0915B02F0915C0230E020E09A
:1037A000B0E0A0E0309799F42115310509F447C045
:1037B000281B390B24303105C0F58A819B816115A6
:1037C000710571F1FB0193838283FE0111C0408179
:1037D00051810281138148175907F8F0481759079A
:1037E00099F4109761F012960C93129713961C930C
:1037F0003296CF01DF91CF911F910F9108950093E1
:103800005B0210935C02F4CF2115310519F04217C9
:10381000530718F49A01BD01EF01DF01F801C2CF8F
:1038200090935C0280935B02D0CFFE01E20FF31F06
:10383000819391932250310939832883DACF2091E3
:10384000590230915A02232B41F420910201309108
:10385000030130935A0220935902209100013091C4
:1038600001012115310541F42DB73EB74091040106
:1038700050910501241B350B4091590250915A0279
:103880004217530708F0B5CF241B350B281739070B
:1038900008F4AFCFBC016E5F7F4F2617370708F4DF
:1038A000A8CF640F751F70935A0260935902FA01F2
:1038B000819391939ECFCF93DF930097E9F0FC0122
:1038C000329713821282C0915B02D0915C02DE01BA
:1038D00030E020E02097A1F420813181820F931FF6
:1038E0002091590230915A022817390709F067C010
:1038F000F0935A02E0935902DF91CF910895DA01D3
:10390000AE17BF0708F040C012964D915C91139717
:103910009D014115510599F7D9011396FC93EE933A
:1039200012974D915D91A40FB51FEA17FB0779F42B
:10393000808191810296840F951FD90111969C93E5
:103940008E938281938113969C938E931297B0E00D
:10395000A0E08A819B810097B9F5FE018191919148
:10396000E80FF91F8091590290915A028E179F0714
:1039700019F6109761F510925C0210925B02D093D9
:103980005A02C0935902B8CFB383A28340815181B8
:10399000840F951FA817B90771F44E5F5F4F8D9183
:1039A0009C911197480F591F5183408312968D9116
:1039B0009C91938382832115310509F0ADCFF0935B
:1039C0005C02E0935B0298CFDE01EC01C2CF13965C
:1039D0001C921E921297D3CFF894FFCF3008300874
:1039E000390839083B0839083908390830083008DF
:1039F0004008390839084008B408C008C508BE089E
:103A0000C308CA08C808C70BEF0B850DEF0B850D5F
:103A1000220C430C850D400D4D0DCF12CF124913D2
:103A200049139713041304130413B1138714961442
:023A30009614EA
:103A320000005D0220002000F4038C09F3038809D2
:103A4200840901818283E200E900EA00B500B60040
:103A5200B700CD008301CC008A01920194012102BA
:103A6200230224022502260227022A02B300B400FE
:043A72006F00700071
:00000001FF
